{
  "_format": "hh-sol-artifact-1",
  "contractName": "HexaMarketplace",
  "sourceName": "contracts/HexaMarketplace.sol",
  "abi": [
    {
      "inputs": [
        {
          "internalType": "address payable",
          "name": "_feeRecipient",
          "type": "address"
        },
        {
          "internalType": "uint256",
          "name": "_platformFee",
          "type": "uint256"
        }
      ],
      "stateMutability": "nonpayable",
      "type": "constructor"
    },
    {
      "anonymous": false,
      "inputs": [
        {
          "indexed": true,
          "internalType": "address",
          "name": "owner",
          "type": "address"
        },
        {
          "indexed": true,
          "internalType": "address",
          "name": "nft",
          "type": "address"
        },
        {
          "indexed": false,
          "internalType": "uint256",
          "name": "tokenId",
          "type": "uint256"
        }
      ],
      "name": "ItemCanceled",
      "type": "event"
    },
    {
      "anonymous": false,
      "inputs": [
        {
          "indexed": true,
          "internalType": "address",
          "name": "owner",
          "type": "address"
        },
        {
          "indexed": true,
          "internalType": "address",
          "name": "nft",
          "type": "address"
        },
        {
          "indexed": false,
          "internalType": "uint256",
          "name": "tokenId",
          "type": "uint256"
        },
        {
          "indexed": false,
          "internalType": "uint256",
          "name": "quantity",
          "type": "uint256"
        },
        {
          "indexed": false,
          "internalType": "uint256",
          "name": "pricePerItem",
          "type": "uint256"
        },
        {
          "indexed": false,
          "internalType": "uint256",
          "name": "startingTime",
          "type": "uint256"
        }
      ],
      "name": "ItemListed",
      "type": "event"
    },
    {
      "anonymous": false,
      "inputs": [
        {
          "indexed": true,
          "internalType": "address",
          "name": "seller",
          "type": "address"
        },
        {
          "indexed": true,
          "internalType": "address",
          "name": "buyer",
          "type": "address"
        },
        {
          "indexed": true,
          "internalType": "address",
          "name": "nft",
          "type": "address"
        },
        {
          "indexed": false,
          "internalType": "uint256",
          "name": "tokenId",
          "type": "uint256"
        },
        {
          "indexed": false,
          "internalType": "uint256",
          "name": "quantity",
          "type": "uint256"
        },
        {
          "indexed": false,
          "internalType": "uint256",
          "name": "pricePerItem",
          "type": "uint256"
        }
      ],
      "name": "ItemSold",
      "type": "event"
    },
    {
      "anonymous": false,
      "inputs": [
        {
          "indexed": true,
          "internalType": "address",
          "name": "owner",
          "type": "address"
        },
        {
          "indexed": true,
          "internalType": "address",
          "name": "nft",
          "type": "address"
        },
        {
          "indexed": false,
          "internalType": "uint256",
          "name": "tokenId",
          "type": "uint256"
        },
        {
          "indexed": false,
          "internalType": "uint256",
          "name": "newPrice",
          "type": "uint256"
        }
      ],
      "name": "ItemUpdated",
      "type": "event"
    },
    {
      "anonymous": false,
      "inputs": [
        {
          "indexed": true,
          "internalType": "address",
          "name": "creator",
          "type": "address"
        },
        {
          "indexed": true,
          "internalType": "address",
          "name": "nft",
          "type": "address"
        },
        {
          "indexed": false,
          "internalType": "uint256",
          "name": "tokenId",
          "type": "uint256"
        }
      ],
      "name": "OfferCanceled",
      "type": "event"
    },
    {
      "anonymous": false,
      "inputs": [
        {
          "indexed": true,
          "internalType": "address",
          "name": "creator",
          "type": "address"
        },
        {
          "indexed": true,
          "internalType": "address",
          "name": "nft",
          "type": "address"
        },
        {
          "indexed": false,
          "internalType": "uint256",
          "name": "tokenId",
          "type": "uint256"
        },
        {
          "indexed": false,
          "internalType": "uint256",
          "name": "quantity",
          "type": "uint256"
        },
        {
          "indexed": false,
          "internalType": "uint256",
          "name": "pricePerItem",
          "type": "uint256"
        },
        {
          "indexed": false,
          "internalType": "uint256",
          "name": "deadline",
          "type": "uint256"
        }
      ],
      "name": "OfferCreated",
      "type": "event"
    },
    {
      "anonymous": false,
      "inputs": [
        {
          "indexed": false,
          "internalType": "uint16",
          "name": "platformFee",
          "type": "uint16"
        }
      ],
      "name": "UpdatePlatformFee",
      "type": "event"
    },
    {
      "anonymous": false,
      "inputs": [
        {
          "indexed": false,
          "internalType": "address payable",
          "name": "platformFeeRecipient",
          "type": "address"
        }
      ],
      "name": "UpdatePlatformFeeRecipient",
      "type": "event"
    },
    {
      "inputs": [
        {
          "internalType": "address",
          "name": "_nftAddress",
          "type": "address"
        },
        {
          "internalType": "uint256",
          "name": "_tokenId",
          "type": "uint256"
        },
        {
          "internalType": "address",
          "name": "_creator",
          "type": "address"
        }
      ],
      "name": "acceptOffer",
      "outputs": [],
      "stateMutability": "payable",
      "type": "function"
    },
    {
      "inputs": [],
      "name": "admin",
      "outputs": [
        {
          "internalType": "address",
          "name": "",
          "type": "address"
        }
      ],
      "stateMutability": "view",
      "type": "function"
    },
    {
      "inputs": [
        {
          "internalType": "address",
          "name": "_nftAddress",
          "type": "address"
        },
        {
          "internalType": "uint256",
          "name": "_tokenId",
          "type": "uint256"
        },
        {
          "internalType": "address",
          "name": "_owner",
          "type": "address"
        }
      ],
      "name": "buyItem",
      "outputs": [],
      "stateMutability": "payable",
      "type": "function"
    },
    {
      "inputs": [
        {
          "internalType": "address",
          "name": "_nftAddress",
          "type": "address"
        },
        {
          "internalType": "uint256",
          "name": "_tokenId",
          "type": "uint256"
        }
      ],
      "name": "cancelListing",
      "outputs": [],
      "stateMutability": "nonpayable",
      "type": "function"
    },
    {
      "inputs": [
        {
          "internalType": "address",
          "name": "_nftAddress",
          "type": "address"
        },
        {
          "internalType": "uint256",
          "name": "_tokenId",
          "type": "uint256"
        }
      ],
      "name": "cancelOffer",
      "outputs": [],
      "stateMutability": "nonpayable",
      "type": "function"
    },
    {
      "inputs": [
        {
          "internalType": "address",
          "name": "",
          "type": "address"
        }
      ],
      "name": "collectionRoyalties",
      "outputs": [
        {
          "internalType": "uint16",
          "name": "royalty",
          "type": "uint16"
        },
        {
          "internalType": "address",
          "name": "creator",
          "type": "address"
        },
        {
          "internalType": "address",
          "name": "feeRecipient",
          "type": "address"
        }
      ],
      "stateMutability": "view",
      "type": "function"
    },
    {
      "inputs": [
        {
          "internalType": "address",
          "name": "_nftAddress",
          "type": "address"
        },
        {
          "internalType": "uint256",
          "name": "_tokenId",
          "type": "uint256"
        },
        {
          "internalType": "uint256",
          "name": "_quantity",
          "type": "uint256"
        },
        {
          "internalType": "uint256",
          "name": "_pricePerItem",
          "type": "uint256"
        },
        {
          "internalType": "uint256",
          "name": "_deadline",
          "type": "uint256"
        }
      ],
      "name": "createOffer",
      "outputs": [],
      "stateMutability": "payable",
      "type": "function"
    },
    {
      "inputs": [],
      "name": "feeReceipient",
      "outputs": [
        {
          "internalType": "address payable",
          "name": "",
          "type": "address"
        }
      ],
      "stateMutability": "view",
      "type": "function"
    },
    {
      "inputs": [
        {
          "internalType": "address",
          "name": "_nftAddress",
          "type": "address"
        },
        {
          "internalType": "uint256",
          "name": "_tokenId",
          "type": "uint256"
        },
        {
          "internalType": "uint256",
          "name": "_quantity",
          "type": "uint256"
        },
        {
          "internalType": "uint256",
          "name": "_pricePerItem",
          "type": "uint256"
        },
        {
          "internalType": "uint256",
          "name": "_startingTime",
          "type": "uint256"
        }
      ],
      "name": "listItem",
      "outputs": [],
      "stateMutability": "payable",
      "type": "function"
    },
    {
      "inputs": [
        {
          "internalType": "address",
          "name": "",
          "type": "address"
        },
        {
          "internalType": "uint256",
          "name": "",
          "type": "uint256"
        },
        {
          "internalType": "address",
          "name": "",
          "type": "address"
        }
      ],
      "name": "listings",
      "outputs": [
        {
          "internalType": "uint256",
          "name": "quantity",
          "type": "uint256"
        },
        {
          "internalType": "uint256",
          "name": "pricePerItem",
          "type": "uint256"
        },
        {
          "internalType": "uint256",
          "name": "startingTime",
          "type": "uint256"
        }
      ],
      "stateMutability": "view",
      "type": "function"
    },
    {
      "inputs": [
        {
          "internalType": "address",
          "name": "",
          "type": "address"
        },
        {
          "internalType": "uint256",
          "name": "",
          "type": "uint256"
        }
      ],
      "name": "minters",
      "outputs": [
        {
          "internalType": "address",
          "name": "",
          "type": "address"
        }
      ],
      "stateMutability": "view",
      "type": "function"
    },
    {
      "inputs": [
        {
          "internalType": "address",
          "name": "",
          "type": "address"
        },
        {
          "internalType": "uint256",
          "name": "",
          "type": "uint256"
        },
        {
          "internalType": "address",
          "name": "",
          "type": "address"
        }
      ],
      "name": "offers",
      "outputs": [
        {
          "internalType": "uint256",
          "name": "quantity",
          "type": "uint256"
        },
        {
          "internalType": "uint256",
          "name": "pricePerItem",
          "type": "uint256"
        },
        {
          "internalType": "uint256",
          "name": "deadline",
          "type": "uint256"
        }
      ],
      "stateMutability": "view",
      "type": "function"
    },
    {
      "inputs": [],
      "name": "platformFee",
      "outputs": [
        {
          "internalType": "uint256",
          "name": "",
          "type": "uint256"
        }
      ],
      "stateMutability": "view",
      "type": "function"
    },
    {
      "inputs": [
        {
          "internalType": "address",
          "name": "_nftAddress",
          "type": "address"
        },
        {
          "internalType": "address",
          "name": "_creator",
          "type": "address"
        },
        {
          "internalType": "uint16",
          "name": "_royalty",
          "type": "uint16"
        },
        {
          "internalType": "address",
          "name": "_feeRecipient",
          "type": "address"
        }
      ],
      "name": "registerCollectionRoyalty",
      "outputs": [],
      "stateMutability": "nonpayable",
      "type": "function"
    },
    {
      "inputs": [
        {
          "internalType": "address",
          "name": "_nftAddress",
          "type": "address"
        },
        {
          "internalType": "uint256",
          "name": "_tokenId",
          "type": "uint256"
        },
        {
          "internalType": "uint16",
          "name": "_royalty",
          "type": "uint16"
        }
      ],
      "name": "registerRoyalty",
      "outputs": [],
      "stateMutability": "nonpayable",
      "type": "function"
    },
    {
      "inputs": [
        {
          "internalType": "address",
          "name": "",
          "type": "address"
        },
        {
          "internalType": "uint256",
          "name": "",
          "type": "uint256"
        }
      ],
      "name": "royalties",
      "outputs": [
        {
          "internalType": "uint16",
          "name": "",
          "type": "uint16"
        }
      ],
      "stateMutability": "view",
      "type": "function"
    },
    {
      "inputs": [
        {
          "internalType": "address",
          "name": "_nftAddress",
          "type": "address"
        },
        {
          "internalType": "uint256",
          "name": "_tokenId",
          "type": "uint256"
        },
        {
          "internalType": "uint256",
          "name": "_newPrice",
          "type": "uint256"
        }
      ],
      "name": "updateListing",
      "outputs": [],
      "stateMutability": "nonpayable",
      "type": "function"
    },
    {
      "inputs": [
        {
          "internalType": "uint16",
          "name": "_platformFee",
          "type": "uint16"
        }
      ],
      "name": "updatePlatformFee",
      "outputs": [],
      "stateMutability": "nonpayable",
      "type": "function"
    },
    {
      "inputs": [
        {
          "internalType": "address payable",
          "name": "_platformFeeRecipient",
          "type": "address"
        }
      ],
      "name": "updatePlatformFeeRecipient",
      "outputs": [],
      "stateMutability": "nonpayable",
      "type": "function"
    }
  ],
  "bytecode": "0x60806040523480156200001157600080fd5b5060405162004f4c38038062004f4c8339818101604052810190620000379190620000f6565b8060048190555081600660006101000a81548173ffffffffffffffffffffffffffffffffffffffff021916908373ffffffffffffffffffffffffffffffffffffffff16021790555033600560006101000a81548173ffffffffffffffffffffffffffffffffffffffff021916908373ffffffffffffffffffffffffffffffffffffffff1602179055505050620001b4565b600081519050620000d98162000180565b92915050565b600081519050620000f0816200019a565b92915050565b6000806040838503121562000110576200010f6200017b565b5b60006200012085828601620000c8565b92505060206200013385828601620000df565b9150509250929050565b60006200014a8262000151565b9050919050565b600073ffffffffffffffffffffffffffffffffffffffff82169050919050565b6000819050919050565b600080fd5b6200018b816200013d565b81146200019757600080fd5b50565b620001a58162000171565b8114620001b157600080fd5b50565b614d8880620001c46000396000f3fe6080604052600436106101145760003560e01c8063afb06952116100a0578063e1e549c411610064578063e1e549c41461037d578063f3880b6e146103ba578063f5fe7f71146103e3578063f772adf11461040c578063f851a4401461043557610114565b8063afb06952146102a7578063b100bcdb146102d0578063b2ddee06146102ec578063c1661a9a14610315578063d3f494cc1461033e57610114565b80633740ebb3116100e75780633740ebb3146101a55780633bbb2806146101d057806357b275b4146101ec5780636bd3a64b1461022b57806378746d0d1461026a57610114565b8063058a56ac14610119578063161878e914610142578063259ca3651461015e57806326232a2e1461017a575b600080fd5b34801561012557600080fd5b50610140600480360381019061013b9190613d9f565b610460565b005b61015c60048036038101906101579190613ed8565b61068f565b005b61017860048036038101906101739190613ddf565b610c37565b005b34801561018657600080fd5b5061018f610e6e565b60405161019c919061469a565b60405180910390f35b3480156101b157600080fd5b506101ba610e74565b6040516101c791906142ef565b60405180910390f35b6101ea60048036038101906101e59190613ddf565b610e9a565b005b3480156101f857600080fd5b50610213600480360381019061020e9190613c24565b610fc8565b60405161022293929190614663565b60405180910390f35b34801561023757600080fd5b50610252600480360381019061024d9190613ddf565b611040565b604051610261939291906146de565b60405180910390f35b34801561027657600080fd5b50610291600480360381019061028c9190613d9f565b611084565b60405161029e91906142d4565b60405180910390f35b3480156102b357600080fd5b506102ce60048036038101906102c99190613f80565b6110c6565b005b6102ea60048036038101906102e59190613ed8565b61119b565b005b3480156102f857600080fd5b50610313600480360381019061030e9190613d9f565b611963565b005b34801561032157600080fd5b5061033c60048036038101906103379190613cab565b611a7a565b005b34801561034a57600080fd5b5061036560048036038101906103609190613ddf565b611e7c565b604051610374939291906146de565b60405180910390f35b34801561038957600080fd5b506103a4600480360381019061039f9190613d9f565b611ec0565b6040516103b19190614648565b60405180910390f35b3480156103c657600080fd5b506103e160048036038101906103dc9190613e32565b611ef0565b005b3480156103ef57600080fd5b5061040a60048036038101906104059190613c7e565b612122565b005b34801561041857600080fd5b50610433600480360381019061042e9190613e85565b61222d565b005b34801561044157600080fd5b5061044a61244c565b60405161045791906142d4565b60405180910390f35b8181336000600360008573ffffffffffffffffffffffffffffffffffffffff1673ffffffffffffffffffffffffffffffffffffffff168152602001908152602001600020600084815260200190815260200160002060008373ffffffffffffffffffffffffffffffffffffffff1673ffffffffffffffffffffffffffffffffffffffff168152602001908152602001600020604051806060016040529081600082015481526020016001820154815260200160028201548152505090506000816000015111801561053b5750610534612472565b8160400151115b61057a576040517f08c379a0000000000000000000000000000000000000000000000000000000008152600401610571906145e8565b60405180910390fd5b600360008773ffffffffffffffffffffffffffffffffffffffff1673ffffffffffffffffffffffffffffffffffffffff168152602001908152602001600020600086815260200190815260200160002060003373ffffffffffffffffffffffffffffffffffffffff1673ffffffffffffffffffffffffffffffffffffffff1681526020019081526020016000206000808201600090556001820160009055600282016000905550508573ffffffffffffffffffffffffffffffffffffffff163373ffffffffffffffffffffffffffffffffffffffff167fc6e24dcedb16cc237925b586889d0a38102c719734d6cc56acb89b013099b3a78760405161067f919061469a565b60405180910390a3505050505050565b8484336000600360008573ffffffffffffffffffffffffffffffffffffffff1673ffffffffffffffffffffffffffffffffffffffff168152602001908152602001600020600084815260200190815260200160002060008373ffffffffffffffffffffffffffffffffffffffff1673ffffffffffffffffffffffffffffffffffffffff1681526020019081526020016000206040518060600160405290816000820154815260200160018201548152602001600282015481525050905060008160000151148061076a5750610762612472565b816040015111155b6107a9576040517f08c379a00000000000000000000000000000000000000000000000000000000081526004016107a090614508565b60405180910390fd5b8873ffffffffffffffffffffffffffffffffffffffff166301ffc9a76380ac58cd60e01b6040518263ffffffff1660e01b81526004016107e991906143ed565b60206040518083038186803b15801561080157600080fd5b505afa158015610815573d6000803e3d6000fd5b505050506040513d601f19601f820116820180604052508101906108399190613f53565b806108d057508873ffffffffffffffffffffffffffffffffffffffff166301ffc9a763d9b67a2660e01b6040518263ffffffff1660e01b815260040161087f91906143ed565b60206040518083038186803b15801561089757600080fd5b505afa1580156108ab573d6000803e3d6000fd5b505050506040513d601f19601f820116820180604052508101906108cf9190613f53565b5b61090f576040517f08c379a000000000000000000000000000000000000000000000000000000000815260040161090690614428565b60405180910390fd5b60008060008273ffffffffffffffffffffffffffffffffffffffff166344f91c1e8d8d6040518363ffffffff1660e01b815260040161094f9291906143c4565b60c06040518083038186803b15801561096757600080fd5b505afa15801561097b573d6000803e3d6000fd5b505050506040513d601f19601f8201168201806040525081019061099f9190613d12565b955050945050505060008214806109ba575060011515811515145b6109f9576040517f08c379a00000000000000000000000000000000000000000000000000000000081526004016109f090614408565b60405180910390fd5b610a01612472565b8811610a42576040517f08c379a0000000000000000000000000000000000000000000000000000000008152600401610a3990614608565b60405180910390fd5b6004543414610a86576040517f08c379a0000000000000000000000000000000000000000000000000000000008152600401610a7d90614448565b60405180910390fd5b600034905060405180606001604052808c81526020018b81526020018a815250600360008f73ffffffffffffffffffffffffffffffffffffffff1673ffffffffffffffffffffffffffffffffffffffff16815260200190815260200160002060008e815260200190815260200160002060003373ffffffffffffffffffffffffffffffffffffffff1673ffffffffffffffffffffffffffffffffffffffff168152602001908152602001600020600082015181600001556020820151816001015560408201518160020155905050600660009054906101000a900473ffffffffffffffffffffffffffffffffffffffff1673ffffffffffffffffffffffffffffffffffffffff166108fc829081150290604051600060405180830381858888f19350505050158015610bbc573d6000803e3d6000fd5b508c73ffffffffffffffffffffffffffffffffffffffff163373ffffffffffffffffffffffffffffffffffffffff167f022af7cd65c1a18dbb698fa1933b17125fe49a46d900e3841ee581dfee45ab438e8e8e8e604051610c209493929190614715565b60405180910390a350505050505050505050505050565b8282826000600260008573ffffffffffffffffffffffffffffffffffffffff1673ffffffffffffffffffffffffffffffffffffffff168152602001908152602001600020600084815260200190815260200160002060008373ffffffffffffffffffffffffffffffffffffffff1673ffffffffffffffffffffffffffffffffffffffff168152602001908152602001600020604051806060016040529081600082015481526020016001820154815260200160028201548152505090506000816000015111610d3b576040517f08c379a0000000000000000000000000000000000000000000000000000000008152600401610d3290614628565b60405180910390fd5b8686866000600260008573ffffffffffffffffffffffffffffffffffffffff1673ffffffffffffffffffffffffffffffffffffffff168152602001908152602001600020600084815260200190815260200160002060008373ffffffffffffffffffffffffffffffffffffffff1673ffffffffffffffffffffffffffffffffffffffff16815260200190815260200160002060405180606001604052908160008201548152602001600182015481526020016002820154815250509050610e08848484846000015161247a565b8060400151610e15612472565b1015610e56576040517f08c379a0000000000000000000000000000000000000000000000000000000008152600401610e4d906145a8565b60405180910390fd5b610e618b8b8b6127be565b5050505050505050505050565b60045481565b600660009054906101000a900473ffffffffffffffffffffffffffffffffffffffff1681565b8282826000600360008573ffffffffffffffffffffffffffffffffffffffff1673ffffffffffffffffffffffffffffffffffffffff168152602001908152602001600020600084815260200190815260200160002060008373ffffffffffffffffffffffffffffffffffffffff1673ffffffffffffffffffffffffffffffffffffffff1681526020019081526020016000206040518060600160405290816000820154815260200160018201548152602001600282015481525050905060008160000151118015610f755750610f6e612472565b8160400151115b610fb4576040517f08c379a0000000000000000000000000000000000000000000000000000000008152600401610fab906145e8565b60405180910390fd5b610fbf87878761300c565b50505050505050565b60076020528060005260406000206000915090508060000160009054906101000a900461ffff16908060000160029054906101000a900473ffffffffffffffffffffffffffffffffffffffff16908060010160009054906101000a900473ffffffffffffffffffffffffffffffffffffffff16905083565b600260205282600052604060002060205281600052604060002060205280600052604060002060009250925050508060000154908060010154908060020154905083565b60006020528160005260406000206020528060005260406000206000915091509054906101000a900473ffffffffffffffffffffffffffffffffffffffff1681565b600560009054906101000a900473ffffffffffffffffffffffffffffffffffffffff1673ffffffffffffffffffffffffffffffffffffffff163373ffffffffffffffffffffffffffffffffffffffff1614611156576040517f08c379a000000000000000000000000000000000000000000000000000000000815260040161114d90614548565b60405180910390fd5b8061ffff166004819055507fcabead39256298cdf7d1228eee68b47bc54a2192283d8d93574da08d2d7ac303816040516111909190614648565b60405180910390a150565b8484336000600260008573ffffffffffffffffffffffffffffffffffffffff1673ffffffffffffffffffffffffffffffffffffffff168152602001908152602001600020600084815260200190815260200160002060008373ffffffffffffffffffffffffffffffffffffffff1673ffffffffffffffffffffffffffffffffffffffff16815260200190815260200160002060405180606001604052908160008201548152602001600182015481526020016002820154815250509050600081600001511461129f576040517f08c379a0000000000000000000000000000000000000000000000000000000008152600401611296906145c8565b60405180910390fd5b8873ffffffffffffffffffffffffffffffffffffffff166301ffc9a76380ac58cd60e01b6040518263ffffffff1660e01b81526004016112df91906143ed565b60206040518083038186803b1580156112f757600080fd5b505afa15801561130b573d6000803e3d6000fd5b505050506040513d601f19601f8201168201806040525081019061132f9190613f53565b156114ff5760008990503373ffffffffffffffffffffffffffffffffffffffff168173ffffffffffffffffffffffffffffffffffffffff16636352211e8b6040518263ffffffff1660e01b8152600401611389919061469a565b60206040518083038186803b1580156113a157600080fd5b505afa1580156113b5573d6000803e3d6000fd5b505050506040513d601f19601f820116820180604052508101906113d99190613c51565b73ffffffffffffffffffffffffffffffffffffffff161461142f576040517f08c379a000000000000000000000000000000000000000000000000000000000815260040161142690614488565b60405180910390fd5b8073ffffffffffffffffffffffffffffffffffffffff1663e985e9c533306040518363ffffffff1660e01b815260040161146a92919061430a565b60206040518083038186803b15801561148257600080fd5b505afa158015611496573d6000803e3d6000fd5b505050506040513d601f19601f820116820180604052508101906114ba9190613f53565b6114f9576040517f08c379a00000000000000000000000000000000000000000000000000000000081526004016114f090614568565b60405180910390fd5b50611771565b8873ffffffffffffffffffffffffffffffffffffffff166301ffc9a763d9b67a2660e01b6040518263ffffffff1660e01b815260040161153f91906143ed565b60206040518083038186803b15801561155757600080fd5b505afa15801561156b573d6000803e3d6000fd5b505050506040513d601f19601f8201168201806040525081019061158f9190613f53565b15611735576000899050878173ffffffffffffffffffffffffffffffffffffffff1662fdd58e338c6040518363ffffffff1660e01b81526004016115d49291906143c4565b60206040518083038186803b1580156115ec57600080fd5b505afa158015611600573d6000803e3d6000fd5b505050506040513d601f19601f820116820180604052508101906116249190613fad565b1015611665576040517f08c379a000000000000000000000000000000000000000000000000000000000815260040161165c90614588565b60405180910390fd5b8073ffffffffffffffffffffffffffffffffffffffff1663e985e9c533306040518363ffffffff1660e01b81526004016116a092919061430a565b60206040518083038186803b1580156116b857600080fd5b505afa1580156116cc573d6000803e3d6000fd5b505050506040513d601f19601f820116820180604052508101906116f09190613f53565b61172f576040517f08c379a000000000000000000000000000000000000000000000000000000000815260040161172690614568565b60405180910390fd5b50611770565b6040517f08c379a000000000000000000000000000000000000000000000000000000000815260040161176790614428565b60405180910390fd5b5b60045434146117b5576040517f08c379a00000000000000000000000000000000000000000000000000000000081526004016117ac90614448565b60405180910390fd5b6000349050604051806060016040528089815260200188815260200187815250600260008c73ffffffffffffffffffffffffffffffffffffffff1673ffffffffffffffffffffffffffffffffffffffff16815260200190815260200160002060008b815260200190815260200160002060003373ffffffffffffffffffffffffffffffffffffffff1673ffffffffffffffffffffffffffffffffffffffff168152602001908152602001600020600082015181600001556020820151816001015560408201518160020155905050600660009054906101000a900473ffffffffffffffffffffffffffffffffffffffff1673ffffffffffffffffffffffffffffffffffffffff166108fc829081150290604051600060405180830381858888f193505050501580156118eb573d6000803e3d6000fd5b508973ffffffffffffffffffffffffffffffffffffffff163373ffffffffffffffffffffffffffffffffffffffff167f66bd0bc88d76947965bc00f670f5c5b25aebab9fef6cb916d8c63a253ec392b78b8b8b8b60405161194f9493929190614715565b60405180910390a350505050505050505050565b8181336000600260008573ffffffffffffffffffffffffffffffffffffffff1673ffffffffffffffffffffffffffffffffffffffff168152602001908152602001600020600084815260200190815260200160002060008373ffffffffffffffffffffffffffffffffffffffff1673ffffffffffffffffffffffffffffffffffffffff168152602001908152602001600020604051806060016040529081600082015481526020016001820154815260200160028201548152505090506000816000015111611a67576040517f08c379a0000000000000000000000000000000000000000000000000000000008152600401611a5e90614628565b60405180910390fd5b611a7286863361395c565b505050505050565b600073ffffffffffffffffffffffffffffffffffffffff168373ffffffffffffffffffffffffffffffffffffffff161415611aea576040517f08c379a0000000000000000000000000000000000000000000000000000000008152600401611ae190614468565b60405180910390fd5b6127108261ffff161115611b33576040517f08c379a0000000000000000000000000000000000000000000000000000000008152600401611b2a90614528565b60405180910390fd5b60008261ffff161480611b735750600073ffffffffffffffffffffffffffffffffffffffff168173ffffffffffffffffffffffffffffffffffffffff1614155b611bb2576040517f08c379a0000000000000000000000000000000000000000000000000000000008152600401611ba9906144c8565b60405180910390fd5b600073ffffffffffffffffffffffffffffffffffffffff16600760008673ffffffffffffffffffffffffffffffffffffffff1673ffffffffffffffffffffffffffffffffffffffff16815260200190815260200160002060000160029054906101000a900473ffffffffffffffffffffffffffffffffffffffff1673ffffffffffffffffffffffffffffffffffffffff161415611d8c5760405180606001604052808361ffff1681526020018473ffffffffffffffffffffffffffffffffffffffff1681526020018273ffffffffffffffffffffffffffffffffffffffff16815250600760008673ffffffffffffffffffffffffffffffffffffffff1673ffffffffffffffffffffffffffffffffffffffff16815260200190815260200160002060008201518160000160006101000a81548161ffff021916908361ffff16021790555060208201518160000160026101000a81548173ffffffffffffffffffffffffffffffffffffffff021916908373ffffffffffffffffffffffffffffffffffffffff16021790555060408201518160010160006101000a81548173ffffffffffffffffffffffffffffffffffffffff021916908373ffffffffffffffffffffffffffffffffffffffff160217905550905050611e76565b6000600760008673ffffffffffffffffffffffffffffffffffffffff1673ffffffffffffffffffffffffffffffffffffffff1681526020019081526020016000209050828160000160006101000a81548161ffff021916908361ffff160217905550818160010160006101000a81548173ffffffffffffffffffffffffffffffffffffffff021916908373ffffffffffffffffffffffffffffffffffffffff160217905550838160000160026101000a81548173ffffffffffffffffffffffffffffffffffffffff021916908373ffffffffffffffffffffffffffffffffffffffff160217905550505b50505050565b600360205282600052604060002060205281600052604060002060205280600052604060002060009250925050508060000154908060010154908060020154905083565b60016020528160005260406000206020528060005260406000206000915091509054906101000a900461ffff1681565b6127108161ffff161115611f39576040517f08c379a0000000000000000000000000000000000000000000000000000000008152600401611f3090614528565b60405180910390fd5b611f46838333600161247a565b600073ffffffffffffffffffffffffffffffffffffffff166000808573ffffffffffffffffffffffffffffffffffffffff1673ffffffffffffffffffffffffffffffffffffffff168152602001908152602001600020600084815260200190815260200160002060009054906101000a900473ffffffffffffffffffffffffffffffffffffffff1673ffffffffffffffffffffffffffffffffffffffff1614612024576040517f08c379a000000000000000000000000000000000000000000000000000000000815260040161201b906144e8565b60405180910390fd5b336000808573ffffffffffffffffffffffffffffffffffffffff1673ffffffffffffffffffffffffffffffffffffffff168152602001908152602001600020600084815260200190815260200160002060006101000a81548173ffffffffffffffffffffffffffffffffffffffff021916908373ffffffffffffffffffffffffffffffffffffffff16021790555080600160008573ffffffffffffffffffffffffffffffffffffffff1673ffffffffffffffffffffffffffffffffffffffff168152602001908152602001600020600084815260200190815260200160002060006101000a81548161ffff021916908361ffff160217905550505050565b600560009054906101000a900473ffffffffffffffffffffffffffffffffffffffff1673ffffffffffffffffffffffffffffffffffffffff163373ffffffffffffffffffffffffffffffffffffffff16146121b2576040517f08c379a00000000000000000000000000000000000000000000000000000000081526004016121a990614548565b60405180910390fd5b80600660006101000a81548173ffffffffffffffffffffffffffffffffffffffff021916908373ffffffffffffffffffffffffffffffffffffffff1602179055507fe57e7c1f36cc83fade34e32351e6eee7eb9da532662b1b5da10c631e8222aca78160405161222291906142ef565b60405180910390a150565b8282336000600260008573ffffffffffffffffffffffffffffffffffffffff1673ffffffffffffffffffffffffffffffffffffffff168152602001908152602001600020600084815260200190815260200160002060008373ffffffffffffffffffffffffffffffffffffffff1673ffffffffffffffffffffffffffffffffffffffff168152602001908152602001600020604051806060016040529081600082015481526020016001820154815260200160028201548152505090506000816000015111612331576040517f08c379a000000000000000000000000000000000000000000000000000000000815260040161232890614628565b60405180910390fd5b6000600260008973ffffffffffffffffffffffffffffffffffffffff1673ffffffffffffffffffffffffffffffffffffffff168152602001908152602001600020600088815260200190815260200160002060003373ffffffffffffffffffffffffffffffffffffffff1673ffffffffffffffffffffffffffffffffffffffff16815260200190815260200160002090506123d2888833846000015461247a565b8581600101819055508773ffffffffffffffffffffffffffffffffffffffff163373ffffffffffffffffffffffffffffffffffffffff167f3c33e65e8698294810b631d476d60b44425303828da0b1f8b635231bfda12be2898960405161243a9291906146b5565b60405180910390a35050505050505050565b600560009054906101000a900473ffffffffffffffffffffffffffffffffffffffff1681565b600042905090565b8373ffffffffffffffffffffffffffffffffffffffff166301ffc9a76380ac58cd60e01b6040518263ffffffff1660e01b81526004016124ba91906143ed565b60206040518083038186803b1580156124d257600080fd5b505afa1580156124e6573d6000803e3d6000fd5b505050506040513d601f19601f8201168201806040525081019061250a9190613f53565b156126105760008490508273ffffffffffffffffffffffffffffffffffffffff168173ffffffffffffffffffffffffffffffffffffffff16636352211e866040518263ffffffff1660e01b8152600401612564919061469a565b60206040518083038186803b15801561257c57600080fd5b505afa158015612590573d6000803e3d6000fd5b505050506040513d601f19601f820116820180604052508101906125b49190613c51565b73ffffffffffffffffffffffffffffffffffffffff161461260a576040517f08c379a000000000000000000000000000000000000000000000000000000000815260040161260190614488565b60405180910390fd5b506127b8565b8373ffffffffffffffffffffffffffffffffffffffff166301ffc9a763d9b67a2660e01b6040518263ffffffff1660e01b815260040161265091906143ed565b60206040518083038186803b15801561266857600080fd5b505afa15801561267c573d6000803e3d6000fd5b505050506040513d601f19601f820116820180604052508101906126a09190613f53565b1561277c576000849050818173ffffffffffffffffffffffffffffffffffffffff1662fdd58e85876040518363ffffffff1660e01b81526004016126e59291906143c4565b60206040518083038186803b1580156126fd57600080fd5b505afa158015612711573d6000803e3d6000fd5b505050506040513d601f19601f820116820180604052508101906127359190613fad565b1015612776576040517f08c379a000000000000000000000000000000000000000000000000000000000815260040161276d90614488565b60405180910390fd5b506127b7565b6040517f08c379a00000000000000000000000000000000000000000000000000000000081526004016127ae90614428565b60405180910390fd5b5b50505050565b6000600260008573ffffffffffffffffffffffffffffffffffffffff1673ffffffffffffffffffffffffffffffffffffffff168152602001908152602001600020600084815260200190815260200160002060008373ffffffffffffffffffffffffffffffffffffffff1673ffffffffffffffffffffffffffffffffffffffff16815260200190815260200160002060405180606001604052908160008201548152602001600182015481526020016002820154815250509050600061289582600001518360200151613b3990919063ffffffff16565b90508034146128d9576040517f08c379a00000000000000000000000000000000000000000000000000000000081526004016128d090614448565b60405180910390fd5b6000349050600061290760646128f9600585613b3990919063ffffffff16565b613b4f90919063ffffffff16565b9050600660009054906101000a900473ffffffffffffffffffffffffffffffffffffffff1673ffffffffffffffffffffffffffffffffffffffff166108fc829081150290604051600060405180830381858888f19350505050158015612971573d6000803e3d6000fd5b5060008060008973ffffffffffffffffffffffffffffffffffffffff1673ffffffffffffffffffffffffffffffffffffffff168152602001908152602001600020600088815260200190815260200160002060009054906101000a900473ffffffffffffffffffffffffffffffffffffffff1690506000600160008a73ffffffffffffffffffffffffffffffffffffffff1673ffffffffffffffffffffffffffffffffffffffff168152602001908152602001600020600089815260200190815260200160002060009054906101000a900461ffff169050600073ffffffffffffffffffffffffffffffffffffffff168273ffffffffffffffffffffffffffffffffffffffff1614158015612a8b575060008161ffff1614155b15612b32576000612ace6064612ac08461ffff16612ab2888a613b6590919063ffffffff16565b613b3990919063ffffffff16565b613b4f90919063ffffffff16565b90508273ffffffffffffffffffffffffffffffffffffffff166108fc829081150290604051600060405180830381858888f19350505050158015612b16573d6000803e3d6000fd5b50612b2a8185613b7b90919063ffffffff16565b935050612cd0565b600760008a73ffffffffffffffffffffffffffffffffffffffff1673ffffffffffffffffffffffffffffffffffffffff16815260200190815260200160002060010160009054906101000a900473ffffffffffffffffffffffffffffffffffffffff169150600760008a73ffffffffffffffffffffffffffffffffffffffff1673ffffffffffffffffffffffffffffffffffffffff16815260200190815260200160002060000160009054906101000a900461ffff169050600073ffffffffffffffffffffffffffffffffffffffff168273ffffffffffffffffffffffffffffffffffffffff1614158015612c2c575060008161ffff1614155b15612ccf576000612c6f6064612c618461ffff16612c53888a613b6590919063ffffffff16565b613b3990919063ffffffff16565b613b4f90919063ffffffff16565b90508273ffffffffffffffffffffffffffffffffffffffff166108fc829081150290604051600060405180830381858888f19350505050158015612cb7573d6000803e3d6000fd5b50612ccb8185613b7b90919063ffffffff16565b9350505b5b6000612ce58486613b6590919063ffffffff16565b90508773ffffffffffffffffffffffffffffffffffffffff166108fc829081150290604051600060405180830381858888f19350505050158015612d2d573d6000803e3d6000fd5b508973ffffffffffffffffffffffffffffffffffffffff166301ffc9a76380ac58cd60e01b6040518263ffffffff1660e01b8152600401612d6e91906143ed565b60206040518083038186803b158015612d8657600080fd5b505afa158015612d9a573d6000803e3d6000fd5b505050506040513d601f19601f82011682018060405250810190612dbe9190613f53565b15612e37578973ffffffffffffffffffffffffffffffffffffffff166342842e0e89338c6040518463ffffffff1660e01b8152600401612e0093929190614333565b600060405180830381600087803b158015612e1a57600080fd5b505af1158015612e2e573d6000803e3d6000fd5b50505050612ebe565b8973ffffffffffffffffffffffffffffffffffffffff1663f242432a89338c8b60000151604051806020016040528060008152506040518663ffffffff1660e01b8152600401612e8b95949392919061436a565b600060405180830381600087803b158015612ea557600080fd5b505af1158015612eb9573d6000803e3d6000fd5b505050505b8973ffffffffffffffffffffffffffffffffffffffff163373ffffffffffffffffffffffffffffffffffffffff168973ffffffffffffffffffffffffffffffffffffffff167f57d8d9cd489eb6f4aa398aa92b49d164d28fde9e7000b5c186bf1b3647a9ebb78c8b60000151612f418d600001518d613b4f90919063ffffffff16565b604051612f50939291906146de565b60405180910390a4600260008b73ffffffffffffffffffffffffffffffffffffffff1673ffffffffffffffffffffffffffffffffffffffff16815260200190815260200160002060008a815260200190815260200160002060008973ffffffffffffffffffffffffffffffffffffffff1673ffffffffffffffffffffffffffffffffffffffff16815260200190815260200160002060008082016000905560018201600090556002820160009055505050505050505050505050565b6000600360008573ffffffffffffffffffffffffffffffffffffffff1673ffffffffffffffffffffffffffffffffffffffff168152602001908152602001600020600084815260200190815260200160002060008373ffffffffffffffffffffffffffffffffffffffff1673ffffffffffffffffffffffffffffffffffffffff168152602001908152602001600020604051806060016040529081600082015481526020016001820154815260200160028201548152505090506130d6848433846000015161247a565b60006130f382600001518360200151613b3990919063ffffffff16565b9050803414613137576040517f08c379a000000000000000000000000000000000000000000000000000000000815260040161312e906144a8565b60405180910390fd5b60006131606064613152600585613b3990919063ffffffff16565b613b4f90919063ffffffff16565b90506000600660009054906101000a900473ffffffffffffffffffffffffffffffffffffffff1673ffffffffffffffffffffffffffffffffffffffff166108fc839081150290604051600060405180830381858888f193505050501580156131cc573d6000803e3d6000fd5b5060008060008973ffffffffffffffffffffffffffffffffffffffff1673ffffffffffffffffffffffffffffffffffffffff168152602001908152602001600020600088815260200190815260200160002060009054906101000a900473ffffffffffffffffffffffffffffffffffffffff1690506000600160008a73ffffffffffffffffffffffffffffffffffffffff1673ffffffffffffffffffffffffffffffffffffffff168152602001908152602001600020600089815260200190815260200160002060009054906101000a900461ffff169050600073ffffffffffffffffffffffffffffffffffffffff168273ffffffffffffffffffffffffffffffffffffffff16141580156132e6575060008161ffff1614155b1561338a5761332760646133198361ffff1661330b888a613b6590919063ffffffff16565b613b3990919063ffffffff16565b613b4f90919063ffffffff16565b92508173ffffffffffffffffffffffffffffffffffffffff166108fc849081150290604051600060405180830381858888f1935050505015801561336f573d6000803e3d6000fd5b506133838385613b7b90919063ffffffff16565b9350613525565b600760008a73ffffffffffffffffffffffffffffffffffffffff1673ffffffffffffffffffffffffffffffffffffffff16815260200190815260200160002060010160009054906101000a900473ffffffffffffffffffffffffffffffffffffffff169150600760008a73ffffffffffffffffffffffffffffffffffffffff1673ffffffffffffffffffffffffffffffffffffffff16815260200190815260200160002060000160009054906101000a900461ffff169050600073ffffffffffffffffffffffffffffffffffffffff168273ffffffffffffffffffffffffffffffffffffffff1614158015613484575060008161ffff1614155b15613524576134c560646134b78361ffff166134a9888a613b6590919063ffffffff16565b613b3990919063ffffffff16565b613b4f90919063ffffffff16565b92508173ffffffffffffffffffffffffffffffffffffffff166108fc849081150290604051600060405180830381858888f1935050505015801561350d573d6000803e3d6000fd5b506135218385613b7b90919063ffffffff16565b93505b5b600061353a8587613b6590919063ffffffff16565b90508773ffffffffffffffffffffffffffffffffffffffff166108fc829081150290604051600060405180830381858888f19350505050158015613582573d6000803e3d6000fd5b508973ffffffffffffffffffffffffffffffffffffffff166301ffc9a76380ac58cd60e01b6040518263ffffffff1660e01b81526004016135c391906143ed565b60206040518083038186803b1580156135db57600080fd5b505afa1580156135ef573d6000803e3d6000fd5b505050506040513d601f19601f820116820180604052508101906136139190613f53565b1561368c578973ffffffffffffffffffffffffffffffffffffffff166342842e0e338a8c6040518463ffffffff1660e01b815260040161365593929190614333565b600060405180830381600087803b15801561366f57600080fd5b505af1158015613683573d6000803e3d6000fd5b50505050613713565b8973ffffffffffffffffffffffffffffffffffffffff1663f242432a338a8c8b60000151604051806020016040528060008152506040518663ffffffff1660e01b81526004016136e095949392919061436a565b600060405180830381600087803b1580156136fa57600080fd5b505af115801561370e573d6000803e3d6000fd5b505050505b8973ffffffffffffffffffffffffffffffffffffffff168873ffffffffffffffffffffffffffffffffffffffff163373ffffffffffffffffffffffffffffffffffffffff167f57d8d9cd489eb6f4aa398aa92b49d164d28fde9e7000b5c186bf1b3647a9ebb78c8b600001518c60200151604051613793939291906146de565b60405180910390a48973ffffffffffffffffffffffffffffffffffffffff168873ffffffffffffffffffffffffffffffffffffffff167fc6e24dcedb16cc237925b586889d0a38102c719734d6cc56acb89b013099b3a78b6040516137f8919061469a565b60405180910390a3600260008b73ffffffffffffffffffffffffffffffffffffffff1673ffffffffffffffffffffffffffffffffffffffff16815260200190815260200160002060008a815260200190815260200160002060003373ffffffffffffffffffffffffffffffffffffffff1673ffffffffffffffffffffffffffffffffffffffff168152602001908152602001600020600080820160009055600182016000905560028201600090555050600360008b73ffffffffffffffffffffffffffffffffffffffff1673ffffffffffffffffffffffffffffffffffffffff16815260200190815260200160002060008a815260200190815260200160002060008973ffffffffffffffffffffffffffffffffffffffff1673ffffffffffffffffffffffffffffffffffffffff16815260200190815260200160002060008082016000905560018201600090556002820160009055505050505050505050505050565b6000600260008573ffffffffffffffffffffffffffffffffffffffff1673ffffffffffffffffffffffffffffffffffffffff168152602001908152602001600020600084815260200190815260200160002060008373ffffffffffffffffffffffffffffffffffffffff1673ffffffffffffffffffffffffffffffffffffffff16815260200190815260200160002060405180606001604052908160008201548152602001600182015481526020016002820154815250509050613a26848484846000015161247a565b600260008573ffffffffffffffffffffffffffffffffffffffff1673ffffffffffffffffffffffffffffffffffffffff168152602001908152602001600020600084815260200190815260200160002060008373ffffffffffffffffffffffffffffffffffffffff1673ffffffffffffffffffffffffffffffffffffffff1681526020019081526020016000206000808201600090556001820160009055600282016000905550508373ffffffffffffffffffffffffffffffffffffffff168273ffffffffffffffffffffffffffffffffffffffff167f9ba1a3cb55ce8d63d072a886f94d2a744f50cddf82128e897d0661f5ec62315885604051613b2b919061469a565b60405180910390a350505050565b60008183613b47919061480e565b905092915050565b60008183613b5d91906147dd565b905092915050565b60008183613b739190614868565b905092915050565b60008183613b899190614787565b905092915050565b600081359050613ba081614cdf565b92915050565b600081519050613bb581614cdf565b92915050565b600081359050613bca81614cf6565b92915050565b600081519050613bdf81614d0d565b92915050565b600081359050613bf481614d24565b92915050565b600081359050613c0981614d3b565b92915050565b600081519050613c1e81614d3b565b92915050565b600060208284031215613c3a57613c396149c1565b5b6000613c4884828501613b91565b91505092915050565b600060208284031215613c6757613c666149c1565b5b6000613c7584828501613ba6565b91505092915050565b600060208284031215613c9457613c936149c1565b5b6000613ca284828501613bbb565b91505092915050565b60008060008060808587031215613cc557613cc46149c1565b5b6000613cd387828801613b91565b9450506020613ce487828801613b91565b9350506040613cf587828801613be5565b9250506060613d0687828801613b91565b91505092959194509250565b60008060008060008060c08789031215613d2f57613d2e6149c1565b5b6000613d3d89828a01613ba6565b9650506020613d4e89828a01613ba6565b9550506040613d5f89828a01613c0f565b9450506060613d7089828a01613c0f565b9350506080613d8189828a01613c0f565b92505060a0613d9289828a01613bd0565b9150509295509295509295565b60008060408385031215613db657613db56149c1565b5b6000613dc485828601613b91565b9250506020613dd585828601613bfa565b9150509250929050565b600080600060608486031215613df857613df76149c1565b5b6000613e0686828701613b91565b9350506020613e1786828701613bfa565b9250506040613e2886828701613b91565b9150509250925092565b600080600060608486031215613e4b57613e4a6149c1565b5b6000613e5986828701613b91565b9350506020613e6a86828701613bfa565b9250506040613e7b86828701613be5565b9150509250925092565b600080600060608486031215613e9e57613e9d6149c1565b5b6000613eac86828701613b91565b9350506020613ebd86828701613bfa565b9250506040613ece86828701613bfa565b9150509250925092565b600080600080600060a08688031215613ef457613ef36149c1565b5b6000613f0288828901613b91565b9550506020613f1388828901613bfa565b9450506040613f2488828901613bfa565b9350506060613f3588828901613bfa565b9250506080613f4688828901613bfa565b9150509295509295909350565b600060208284031215613f6957613f686149c1565b5b6000613f7784828501613bd0565b91505092915050565b600060208284031215613f9657613f956149c1565b5b6000613fa484828501613be5565b91505092915050565b600060208284031215613fc357613fc26149c1565b5b6000613fd184828501613c0f565b91505092915050565b613fe3816148ae565b82525050565b613ff28161489c565b82525050565b614001816148cc565b82525050565b60006140128261475a565b61401c8185614765565b935061402c818560208601614930565b614035816149c6565b840191505092915050565b600061404d602c83614776565b9150614058826149d7565b604082019050919050565b6000614070601383614776565b915061407b82614a26565b602082019050919050565b6000614093601d83614776565b915061409e82614a4f565b602082019050919050565b60006140b6601783614776565b91506140c182614a78565b602082019050919050565b60006140d9600f83614776565b91506140e482614aa1565b602082019050919050565b60006140fc601783614776565b915061410782614aca565b602082019050919050565b600061411f601d83614776565b915061412a82614af3565b602082019050919050565b6000614142601383614776565b915061414d82614b1c565b602082019050919050565b6000614165601583614776565b915061417082614b45565b602082019050919050565b6000614188600f83614776565b915061419382614b6e565b602082019050919050565b60006141ab601183614776565b91506141b682614b97565b602082019050919050565b60006141ce601183614776565b91506141d982614bc0565b602082019050919050565b60006141f1601583614776565b91506141fc82614be9565b602082019050919050565b6000614214601083614776565b915061421f82614c12565b602082019050919050565b6000614237600e83614776565b915061424282614c3b565b602082019050919050565b600061425a601b83614776565b915061426582614c64565b602082019050919050565b600061427d601283614776565b915061428882614c8d565b602082019050919050565b60006142a0600f83614776565b91506142ab82614cb6565b602082019050919050565b6142bf816148f8565b82525050565b6142ce81614926565b82525050565b60006020820190506142e96000830184613fe9565b92915050565b60006020820190506143046000830184613fda565b92915050565b600060408201905061431f6000830185613fe9565b61432c6020830184613fe9565b9392505050565b60006060820190506143486000830186613fe9565b6143556020830185613fe9565b61436260408301846142c5565b949350505050565b600060a08201905061437f6000830188613fe9565b61438c6020830187613fe9565b61439960408301866142c5565b6143a660608301856142c5565b81810360808301526143b88184614007565b90509695505050505050565b60006040820190506143d96000830185613fe9565b6143e660208301846142c5565b9392505050565b60006020820190506144026000830184613ff8565b92915050565b6000602082019050818103600083015261442181614040565b9050919050565b6000602082019050818103600083015261444181614063565b9050919050565b6000602082019050818103600083015261446181614086565b9050919050565b60006020820190508181036000830152614481816140a9565b9050919050565b600060208201905081810360008301526144a1816140cc565b9050919050565b600060208201905081810360008301526144c1816140ef565b9050919050565b600060208201905081810360008301526144e181614112565b9050919050565b6000602082019050818103600083015261450181614135565b9050919050565b6000602082019050818103600083015261452181614158565b9050919050565b600060208201905081810360008301526145418161417b565b9050919050565b600060208201905081810360008301526145618161419e565b9050919050565b60006020820190508181036000830152614581816141c1565b9050919050565b600060208201905081810360008301526145a1816141e4565b9050919050565b600060208201905081810360008301526145c181614207565b9050919050565b600060208201905081810360008301526145e18161422a565b9050919050565b600060208201905081810360008301526146018161424d565b9050919050565b6000602082019050818103600083015261462181614270565b9050919050565b6000602082019050818103600083015261464181614293565b9050919050565b600060208201905061465d60008301846142b6565b92915050565b600060608201905061467860008301866142b6565b6146856020830185613fe9565b6146926040830184613fe9565b949350505050565b60006020820190506146af60008301846142c5565b92915050565b60006040820190506146ca60008301856142c5565b6146d760208301846142c5565b9392505050565b60006060820190506146f360008301866142c5565b61470060208301856142c5565b61470d60408301846142c5565b949350505050565b600060808201905061472a60008301876142c5565b61473760208301866142c5565b61474460408301856142c5565b61475160608301846142c5565b95945050505050565b600081519050919050565b600082825260208201905092915050565b600082825260208201905092915050565b600061479282614926565b915061479d83614926565b9250827fffffffffffffffffffffffffffffffffffffffffffffffffffffffffffffffff038211156147d2576147d1614963565b5b828201905092915050565b60006147e882614926565b91506147f383614926565b92508261480357614802614992565b5b828204905092915050565b600061481982614926565b915061482483614926565b9250817fffffffffffffffffffffffffffffffffffffffffffffffffffffffffffffffff048311821515161561485d5761485c614963565b5b828202905092915050565b600061487382614926565b915061487e83614926565b92508282101561489157614890614963565b5b828203905092915050565b60006148a782614906565b9050919050565b60006148b982614906565b9050919050565b60008115159050919050565b60007fffffffff0000000000000000000000000000000000000000000000000000000082169050919050565b600061ffff82169050919050565b600073ffffffffffffffffffffffffffffffffffffffff82169050919050565b6000819050919050565b60005b8381101561494e578082015181840152602081019050614933565b8381111561495d576000848401525b50505050565b7f4e487b7100000000000000000000000000000000000000000000000000000000600052601160045260246000fd5b7f4e487b7100000000000000000000000000000000000000000000000000000000600052601260045260246000fd5b600080fd5b6000601f19601f8301169050919050565b7f63616e6e6f7420706c61636520616e206f666665722069662061756374696f6e60008201527f20697320676f696e67206f6e0000000000000000000000000000000000000000602082015250565b7f696e76616c6964206e6674206164647265737300000000000000000000000000600082015250565b7f706c6561736520656e746572207468652061736b696e67207072696365000000600082015250565b7f696e76616c69642063726561746f722061646472657373000000000000000000600082015250565b7f6e6f74206f776e696e67206974656d0000000000000000000000000000000000600082015250565b7f656e746572207468652061736b696e6720616d6f756e74000000000000000000600082015250565b7f696e76616c69642066656520726563697069656e742061646472657373000000600082015250565b7f726f79616c747920616c72656164792073657400000000000000000000000000600082015250565b7f6f6666657220616c726561647920637265617465640000000000000000000000600082015250565b7f696e76616c696420726f79616c74790000000000000000000000000000000000600082015250565b7f596f7520617265206e6f74204f776e6572000000000000000000000000000000600082015250565b7f6974656d206e6f7420617070726f766564000000000000000000000000000000600082015250565b7f6d75737420686f6c6420656e6f756768206e6674730000000000000000000000600082015250565b7f6974656d206e6f742062757961626c6500000000000000000000000000000000600082015250565b7f616c7265616479206c6973746564000000000000000000000000000000000000600082015250565b7f6f66666572206e6f7420657869737473206f7220657870697265640000000000600082015250565b7f696e76616c69642065787069726174696f6e0000000000000000000000000000600082015250565b7f6e6f74206c6973746564206974656d0000000000000000000000000000000000600082015250565b614ce88161489c565b8114614cf357600080fd5b50565b614cff816148ae565b8114614d0a57600080fd5b50565b614d16816148c0565b8114614d2157600080fd5b50565b614d2d816148f8565b8114614d3857600080fd5b50565b614d4481614926565b8114614d4f57600080fd5b5056fea2646970667358221220bd32a2a848312d53f01035c84d84ac4c91455be8d0acbdea2a44cf41bd12a2fc64736f6c63430008070033",
  "linkReferences": {},
  "deployedLinkReferences": {}
}